:020000040800F2
:100000003812002045010008B90B0008B10B0008A8
:10001000B50B0008870700083F1500080000000026
:100020000000000000000000000000008310000835
:100030008B07000800000000150E00086D11000875
:100040005F0100085F0100085F0100085F01000810
:100050005F0100085F0100085F0100085F01000800
:100060005F0100085F0100085F0100085F010008F0
:100070005F0100085F0100085F0100085F010008E0
:100080005F0100085F0100085F0100085F010008D0
:100090005F0100085F0100085F0100085F010008C0
:1000A0005F0100085F0100085F0100085F010008B0
:1000B0005F0100085F0100085F0100085F010008A0
:1000C0005F0100085F0100085F0100085F01000890
:1000D0005F010008D11100085F0100083512000817
:1000E0005F0100085F0100085F0100085F01000870
:1000F0005F0100085F0100085F0100085F01000860
:100100005F0100085F0100085F0100085F0100084F
:100110005F0100085F0100085F0100085F0100083F
:100120005F0100085F0100085F0100085F0100082F
:10013000DFF80CD000F0C4FA004800471919000895
:10014000381200200648804706480047FEE7FEE7D1
:10015000FEE7FEE7FEE7FEE7FEE7FEE7FEE7FEE777
:10016000711100083101000830B505462A460B46DA
:1001700012F8010B13F8014B08B1A042F8D01CB1E2
:10018000002802D06D1CF1E7284630BD421C10F853
:10019000011B0029FBD1801A70472DE9FE4F8046D4
:1001A00081EA0300C00F0C46009021F0004123F0CB
:1001B0000045B8EB0200A94105D2404621469046D1
:1001C0001C460B46024623F00040104347D0270D43
:1001D000C7F30A00C3F30A510290401A0190402865
:1001E0006BDAC3F3130040F4801B0098924620B1F1
:1001F0000023D2EB030A63EB0B0B01985946C0F1C5
:100200004002504600F01EF906460D46504659463B
:10021000019A00F036F910EB08006141002487EAEA
:10022000115284EAE7731A4340D0009A62B3019AEC
:10023000012A4FEA075215DC001B61EB02014FF067
:10024000004202EA0752CDE90042001C41F580114C
:1002500032462B4600F036F903B0BDE8F08F404639
:100260002146F9E7001B61EB0201001C41F58013F8
:1002700000185B412018A2F5001747EB030140EA84
:10028000D570B6196D4111E06D084FEA360645EAA2
:10029000C0754FEA0752001B61EB0201001C41F5DB
:1002A000801149084FEA30000019514132462B466F
:1002B00003B0BDE8F04F00F0F6B80098012240000E
:1002C0000023D0EB020263EBE073009821464FEA73
:1002D000E074B8EB000061EB0401E9E783F0004350
:1002E0005BE781F0004158E72DE9FE4F81EA030406
:1002F00004F0004421F0004100944FF0000B23F083
:10030000004350EA01045ED052EA03045BD0C3F319
:100310000A54C1F30A552C44A4F2F3340194A0FB0F
:100320000254C1F3130141F48011C3F3130343F4E6
:10033000801301FB024400FB034E840A970A44EA3F
:10034000815447EA8357A4FB076802958D0A05FB91
:1003500007854FEA932C04FB0C542705029D4FEAB6
:10036000065847EA1637B5EB08056EEB070C870E03
:10037000920E47EA811742EA8312A7FB0201B6EB0D
:100380000B0164EB00042B0D43EA0C335E1844EBC5
:100390001C50DA465146E7FB0201C5F313044FEA4D
:1003A0000B3343EA14534FEA0432019C43EA060339
:1003B000A4F10C040294009CCDE900B400F082F892
:1003C00003B0BDE8F08F00200146F9E70EB540F21A
:1003D000334102910021CDE900110A460B4600F09D
:1003E00071F803B000BDC1F30A5210B5C1F3130197
:1003F00040F2FF3341F480119A4201DA002010BD2F
:1004000040F233439A42A2F2334203DC524200F0FC
:1004100028F810BD904010BD30B50B4601460020B5
:100420002022012409E021FA02F59D4205D303FAB6
:1004300002F5491B04FA02F52844151EA2F1010237
:10044000F1DC30BD202A04DB203A00FA02F1002062
:1004500070479140C2F1200320FA03F31943904002
:100460007047202A04DB203A21FA02F0002170476D
:1004700021FA02F3D040C2F120029140084319460C
:100480007047202A06DBCB17203A41FA02F043EAF4
:10049000E07306E041FA02F3D040C2F1200291403D
:1004A00008431946704710B5141E73F1000408DAAA
:1004B000401C41F1000192185B411A4301D120F028
:1004C000010010BD2DE9F04D92469B4611B1B1FAE5
:1004D00081F202E0B0FA80F220329046FFF7B2FFDC
:1004E00004460F4640EA0A0041EA0B0153465A46C9
:1004F000084313D0114653EA010019D0C8F1400255
:100500005046FFF7AEFF05460E4650465946424656
:10051000FFF798FF084305D0012004E02046394644
:10052000BDE8F08D0020054346EAE0762C433743D2
:100530000A986305E40AA0EB08000022FD0A44EAD9
:1005400047540A3002D500200146E9E70105101999
:100550006941DDE9084500196941BDE8F04DA2E7B0
:100560002DE9F04D81EA030404F0004B21F0004531
:1005700014464FF0000A23F0004150EA050220D053
:1005800054EA01021DD0C5F30A570246C5F313030E
:10059000C1F31300C1F30A5640F4801543F48013ED
:1005A000A7EB0608101BD64608F2FD3873EB0500D2
:1005B00002D308F1010801E092185B41B8F1000F85
:1005C00003DA00200146BDE8F08D00204FF48011D1
:1005D000064684460EE0171B73EB050705D3121B76
:1005E00063EB050306434CEA010C49084FEA30006F
:1005F00092185B4150EA0107EDD152EA030012D094
:1006000082EA040083EA0501084305D0101BAB41D0
:1006100006D20122002306E000224FF0004302E050
:100620006FF0010253101AEB06004CEB085110EB6F
:100630000A0041EB0B01BDE8F04DFFF734BF70B588
:1006400021F0004303430CD0C1F30A550024D5EB3D
:10065000040564EB0403D617AD1AB34102DB002096
:10066000014670BD201841EB025170BD0EB5C10F9F
:1006700080EAE0700844CA07002140F233438DE865
:100680000E000A460B46FFF71DFF03B000BD000039
:1006900030B5041E71F1000404DB4FF00044404209
:1006A00064EB0101141E73F1000405DB1C464FF0DE
:1006B0000043524263EB0403994208BF904230BDAD
:1006C000064C074D06E0E06840F0010394E807009F
:1006D00098471034AC42F6D3FFF72EFDC82300082C
:1006E000E82300082DE9F04D00231A461B1A8A4121
:1006F00003DB00200146BDE8F08DC1F30A52C1F3CF
:10070000130141F480154FF0000BD10702D10018FE
:100710006D41521E0027044640F2FF11384601EB9E
:10072000620A3E468046024600204FF48011FFF7E1
:1007300098FEC2197141BB1846EB0100B4EB030CE3
:1007400075EB000C04D3E41A65EB000517460E4662
:10075000241908F101006D4180463428E3DDF919C0
:1007600046EB0600091BA84103D24FF0FF321346A7
:1007700001E0002213461BEB070046EB0A51BDE8DF
:10078000F04DFFF790BE00BFFEE77047F0B504469E
:100790001C4AB2F1807F00D31DE022F07F40401E52
:1007A0004FF0E023586158170F23002807DA1D0780
:1007B0002F0E154D00F00F06361FAF5503E01D0735
:1007C0002E0E124D2E5400BF00204FF0E0239861F2
:1007D0000720186100BF002108E000BF4FF0E020B3
:1007E000006900F480300028F8D0491CA142F4D3FD
:1007F0004FF0E020006920F001004FF0E02210618E
:10080000F0BD00004019010018ED00E000E400E038
:100810002DE9F04102460025002600200023002497
:10082000002791F803C00CF00F0591F803C00CF0FD
:10083000100CBCF1000F03D091F802C04CEA050582
:1008400091F800C0BCF1000F31D0146800202BE0FB
:100850004FF0010C0CFA00F3B1F800C00CEA0306EB
:100860009E4220D183004FF00F0C0CFA03F7BC43DB
:1008700005FA03FC4CEA040491F803C0BCF1280F0C
:1008800006D14FF0010C0CFA00FCC2F814C00AE0CB
:1008900091F803C0BCF1480F05D14FF0010C0CFAE0
:1008A00000FCC2F810C0401C0828D1D31460B1F875
:1008B00000C0BCF1FF0F34DD546800202EE000F1D1
:1008C000080C4FF0010808FA0CF3B1F800C00CEA6C
:1008D00003069E4221D183004FF00F0C0CFA03F760
:1008E000BC4305FA03FC4CEA040491F803C0BCF1D4
:1008F000280F05D100F1080C08FA0CF8C2F8148092
:1009000091F803C0BCF1480F07D100F1080C4FF07B
:10091000010808FA0CF8C2F81080401C0828CED351
:100920005460BDE8F081416170470161704700008B
:100930002DE9F04FAFB04FF0000B00202C902B9022
:100940002A90202517908246FDE0834810F80A007F
:100950003D2804D0804981A000F040FEEFE07E49B0
:1009600084A000F03BFE00268EE016B12025701E0C
:10097000C6B22E9611E078492E980D5CA5F1300094
:100980001DA921F81B00701CC6B20BF1010000F07C
:10099000FF0B2E98401CC0B22E902B2D07D02D2D72
:1009A00005D02A2D03D02F2D01D03D2DE3D12B983A
:1009B000411CC9B22B9127A90D54ABF10100C0B263
:1009C0002A902A982D904FF000090FE02D98401E94
:1009D0001DA911F8100018A901F809002D98401E52
:1009E000C0B22D9009F1010000F0FF092A9881455D
:1009F000ECDD002728E03846FFF7E8FC02460B460E
:100A0000CDE900010020654900F092FFCDE9040125
:100A100018A9C85DFFF7DAFCCDE90201DDE904237E
:100A2000FFF762FCCDE908011798FFF7CFFCCDE98D
:100A30000601DDE90823FFF7B0FBCDE90A01FFF766
:100A4000D2FC1790781CC7B22A988742D3DB2C9827
:100A5000421CD2B217992C920DAA42F82010002005
:100A60001790834680460AE0002018A901F8080084
:100A70001DA921F8180008F1010000F0FF08B8F1E5
:100A8000140FF1DB701CC6B23348FFF77FFBB04296
:100A90003FF66BAF002449E027A8005D2A2802D06A
:100AA0002F2815D109E00DA850F824000DAA611CCB
:100AB00052F8211048430C900FE00DA850F8241074
:100AC0000DAA601C52F82000B1FBF0F00C9004E07D
:100AD0000DA850F824000C9000BF00BF00241EE0B9
:100AE00027A8005D2B2802D02D2814D109E00DA8DD
:100AF00050F824100DAA601C52F8200008440C90F5
:100B00000AE00DA850F824100DAA601C52F820002D
:100B1000081A0C9000E000BF00BF601CC4B227A8F8
:100B2000FFF734FBA042DBD8601CC4B227A8FFF754
:100B30002DFBA042B0D81AA00C9900F04FFD0AF18D
:100B4000010000F0FF0A0448FFF720FB50453FF684
:100B5000FCAE2FB0BDE8F08F040E0020D2D1BBF167
:100B6000B5C3CAFDBEDDA3ACCAFDBEDDCEAA2573EA
:100B70000A000000D2D1BBF1B5C3CBF9D3D0CAFD76
:100B8000BEDDA3ACCAFDBEDDCEAA25730AD5FDD459
:100B9000DABDF8D0D0BCC6CBE30A00000000244088
:100BA000D7EEBAF3CAE4B3F6CEAAA3BA25640A0014
:100BB00000BFFEE700BFFEE77047000070B50021F0
:100BC00000230F22C47804B3154C246804F4E064B5
:100BD000C4F5E064210AC1F10403CA40447804FA70
:100BE00003F184781440214309010E4C0678A15585
:100BF000047804F01F050124AC4005786D11AD00A8
:100C000005F1E025C5F8004109E0047804F01F056E
:100C10000124AC40044D0678761145F8264070BD9D
:100C20000CED00E000E400E080E100E00249014357
:100C3000024A1160704700000000FA050CED00E068
:100C400070B506460024002500BF16E004F1B00090
:100C5000002100F0BDF80021084600F0B9F800219D
:100C6000102000F0B5F8002504E00121304600F026
:100C7000AFF86D1C802DF8DB641C082CE6DB70BD22
:100C800008B50121082000F0E7F810208DF80300D6
:100C90004FF4E050ADF8000003208DF802006946E3
:100CA0000448FFF7B5FD4FF4E0510248FFF73DFE61
:100CB00008BD0000000C014010B500F063F9FFF71B
:100CC000DFFFC820FFF762FD00F068F80021AE20CA
:100CD00000F07EF80021084600F07AF8002110208C
:100CE00000F076F80021402000F072F80021B020DA
:100CF00000F06EF80021812000F06AF80021FF204A
:100D000000F066F80021A12000F062F80021A62082
:100D100000F05EF80021A82000F05AF800213F20E2
:100D200000F056F80021C82000F052F80021D3202E
:100D300000F04EF80021084600F04AF80021D520C6
:100D400000F046F80021802000F042F80021D92070
:100D500000F03EF80021F12000F03AF80021DA20FE
:100D600000F036F80021122000F032F80021DB20DC
:100D700000F02EF80021302000F02AF800218D200C
:100D800000F026F80021142000F022F80021AF2006
:100D900000F01EF80020FFF753FF10BD10B54FF410
:100DA00080510A48FFF7C1FD6420FFF7EFFC4FF4C4
:100DB00080510648FFF7B7FD6420FFF7E7FC4FF4CA
:100DC00080510248FFF7B1FD10BD0000000C01404A
:100DD00070B504460D462DB14FF480610B48FFF706
:100DE000A4FD04E04FF480610848FFF79CFD4FF438
:100DF00000610648FFF797FDE1B2054800F030F9C1
:100E00004FF400610148FFF790FD70BD000C0140F8
:100E1000003800407047000029B1064AD2690243F9
:100E2000044BDA6104E0034AD2698243014BDA6180
:100E3000704700000010024029B1064A12690243BF
:100E4000044B1A6104E0034A12698243014B1A61A0
:100E5000704700000010024029B1064A926902431F
:100E6000044B9A6104E0034A92698243014B9A6100
:100E7000704700000010024029B1064AD2680243C0
:100E8000044BDA6004E0034AD2688243014BDA6023
:100E9000704700000010024030B5002100220024FD
:100EA00000232D4D6D6805F00C0121B1042905D0FA
:100EB000082923D105E0294D056022E0274D056072
:100EC0001FE0254D6D6805F47012234D6D6805F423
:100ED0008034022505EB92421CB9214D5543056033
:100EE0000BE01D4D6D6805F400351DB11C4D5543DB
:100EF000056002E0194D5543056002E0174D05609D
:100F000000BF00BF144D6D6805F0F0010909154DD3
:100F10006B5C0568DD4045600F4D6D6805F4E06170
:100F2000090A104D6B5C4568DD4085600A4D6D68AF
:100F300005F46051C90A0B4D6B5C4568DD40C56026
:100F4000054D6D6805F44041890B074D6B5CC56824
:100F5000B5FBF3F5056130BD0010024000127A00C8
:100F600000093D00000000201000002021B102888F
:100F700042F04002028004E002884FF6BF731A403C
:100F80000280704700B587B001210920FFF764FF98
:100F900018208DF807004FF42040ADF8040003201E
:100FA0008DF8060001A91D48FFF732FC48208DF896
:100FB00007004FF48040ADF8040003208DF80600D0
:100FC00001A91648FFF724FC01218803FFF724FF3D
:100FD0000020ADF814000120ADF810000220ADF89B
:100FE0000E000720ADF818000020ADF80C00ADF899
:100FF0000800ADF816004FF48270ADF80A004FF407
:101000000070ADF8120002A9054800F00BF80121AC
:101010000348FFF7ABFF07B000BD0000000C014024
:101020000038004010B50022028802F441520B88BB
:101030004C8823438C882343CC8823430C89234347
:101040004C8923438C892343CC8923431A43028050
:10105000838B4FF2FF74234083830B8A038210BD7E
:10106000024600BF108900F002000028FAD09181EA
:1010700000BF108900F001000028FAD09089C0B2AA
:101080007047704710B500F001F810BD0CB5002096
:10109000019000903348006840F480303149086086
:1010A00000BF3048006800F4003000900198401CF8
:1010B0000190009818B90198B0F5A06FF1D12948B6
:1010C000006800F4003010B10120009001E0002021
:1010D00000900098012843D12348006840F0100098
:1010E000214908600846006820F0030008600846AF
:1010F000006840F0020008601A48406819494860DA
:101100000846406848600846406840F4806048608F
:101110000846406820F47C1048600846406840F467
:10112000E81048600846006840F08070086000BF22
:101130000C48006800F000700028F9D009484068A9
:1011400020F00300074948600846406840F002006C
:10115000486000BF0348406800F00C000828F9D13F
:101160000CBD00000010024000200240704700004B
:1011700010B51348006840F00100114908600846A6
:101180004068104908400E494860084600680E490A
:1011900008400B4908600846006820F48020086079
:1011A0000846406820F4FE0048604FF41F00886045
:1011B000FFF768FF4FF000600449086010BD0000B1
:1011C000001002400000FFF8FFFFF6FE08ED00E00F
:1011D00010B540F225510A4800F0EDF878B1084802
:1011E00000F0A4F9C4B2074801880088401C054AF1
:1011F0001080054844542146014800F09CF910BD78
:101200000038014018000020040E002008B54FF4FB
:10121000A060FFF70BFD25208DF8000001208DF860
:1012200003008DF801008DF802006846FFF7C6FC48
:1012300008BD000010B540F22551234800F0BBF86E
:10124000D8B1214800F072F9C4B22048B0F80004C7
:10125000C0F30E0040F2FF3188420EDA1B49B1F8AC
:101260000014C1F30E00411C184AB2F8002461F3C7
:101270000E021649A1F800240C5440F224411248F1
:1012800000F099F8012817D11048B0F8000420F4B4
:10129000004000F500400D49A1F800040A4800F0A4
:1012A00045F9C4B20AA10948FEF75EFF08B1012062
:1012B00000E00020094908700948047001780948D5
:1012C00000F039F910BD0000004800402400002063
:1012D000434C4F5345440D0A000000001A00002003
:1012E000140000200038014021B1828942F40052EC
:1012F000828104E082894DF6FF731A408281704733
:1013000010B504462048844209D101218803FFF723
:10131000B3FD00214FF48040FFF7AEFD32E01B48E3
:10132000844209D101214804FFF786FD00214FF4D2
:101330000030FFF781FD25E01548844209D10121E5
:101340008804FFF779FD00214FF48020FFF774FD3A
:1013500018E01048844209D10121C804FFF76CFD50
:1013600000214FF40020FFF767FD0BE00A4884429C
:1013700008D101210805FFF75FFD00214FF480101F
:10138000FFF75AFD10BD0000003801400044004046
:1013900000480040004C0040005000400246002041
:1013A000B1F5007F00D100BF13880B400BB10120C5
:1013B00000E00020704770B502460024002300259D
:1013C000002040F66A16B14200D100BFC1F34215B9
:1013D00001F01F03012606FA03F3012D02D19689BD
:1013E000334006E0022D02D1168A334001E0968A8E
:1013F00033400C12012606FA04F41688344013B167
:101400000CB1012000E0002070BDF0B503460024BF
:1014100000260025002040F66A17B94200D100BF1F
:101420001846C1F3421401F01F06012707FA06F51A
:10143000012C01D10C3004E0022C01D1103000E06D
:1014400014301AB107682F43076002E00768AF4302
:101450000760F0BD2DE9F04786B005460E46002432
:10146000A24600BFA1460027B08900B100BF2F46A9
:101470002C8A4CF6FF700440F08804432C82AC891F
:101480004EF6F3100440B08831890843718908434F
:101490000443AC81AC8A4FF6FF400440B08904435A
:1014A000AC8201A8FFF7F8FC1F48874202D1DDF8A3
:1014B00010A001E0DDF80CA0A88900F4004040B1C4
:1014C0000AEBCA0000EB0A1031684900B0FBF1F8E2
:1014D00007E00AEBCA0000EB0A1031688900B0FB94
:1014E000F1F86420B8FBF0F004012009642101FB4D
:1014F0001089A88900F4004040B1322000EBC900F7
:10150000B0FBF1F000F00700044308E0322000EBEC
:1015100009106421B0FBF1F000F00F0004432C81AE
:1015200006B0BDE8F0870000003801400146888819
:10153000C0F308007047C1F308028280704700BF03
:10154000FEE7000000B585B001210420FFF784FC10
:1015500001218803FFF780FC1E48FFF7D1FE182009
:101560008DF803004FF40070ADF8000003208DF8F3
:10157000020069461848FFF74BF904208DF8030074
:101580000002ADF8000069461348FFF741F94FF437
:10159000E13001900020ADF810000C20ADF80E00F5
:1015A0000020ADF80C00ADF80A00ADF8080001A964
:1015B0000848FFF74FFFFFF729FE012240F22551AF
:1015C0000448FFF722FF01210248FFF78DFE05B016
:1015D00000BD000000380140000801400FB4054B79
:1015E00010B503A9044A029800F0A8F810BC5DF8F1
:1015F00014FB0000F51800081C000020490050EA08
:10160000C12018BF04204A0D18BF40F0010040F26D
:10161000FF72B2EB515F08BF40F00200012808BF23
:10162000052070472DE9F0414F1E00EBC70104462D
:10163000D1E9000115461E4637F006020DD02A46B4
:101640003346FEF751FE7F1E04EBC703D3E90023A8
:10165000FEF7A3FD37F00602F1D1022F25D0042FAB
:1016600013D0062F18BFBDE8F0812A463346FEF797
:101670003BFED4E90A23FEF790FD2A463346FEF7E7
:1016800033FED4E90823FEF788FD2A463346FEF7E9
:101690002BFED4E90623FEF780FD2A463346FEF7EB
:1016A00023FED4E90423FEF778FD2A463346FEF7ED
:1016B0001BFED4E90223FEF770FD2A463346FEF7EF
:1016C00013FED4E90023BDE8F041FEF766BD00003B
:1016D0000022134610460149FEF742BF0000F03FCA
:1016E000FEF75BBD0022134610461146FEF738BFD9
:1016F00040F2013200204FF0E041FEF7A0BF0000B1
:10170000024A00201107FEF79ABF000001FDFFFF0B
:1017100002E008C8121F08C1002AFAD170477047BA
:10172000002001E001C1121F002AFBD17047000018
:101730000149086070470000200000202DE9FF4F9C
:101740008BB09A460F460546002606E025280BD0AA
:1017500052460D9990476D1C761C28780028F5D1CB
:101760000FB03046BDE8F08F0024A046012260494A
:1017700000E0044315F8013F203B02FA03F0084261
:10178000F7D128782E2817D115F8010F44F004045A
:101790002A280ED06FF02F022878A0F130010929F5
:1017A0000AD808EB880102EB410100EB01086D1C2F
:1017B000F2E757F8048B6D1C287869283ED006DCC8
:1017C0000028CDD063280BD0642804D136E07328DC
:1017D00010D075284BD052460D999047761C85E065
:1017E00017F8040B8DF8000000208DF80100E94681
:1017F000012003E057F8049B4FF0FF3061074FF0E2
:10180000000401D40AE0641C44450DDA8442FADB8A
:1018100019F804100029F6D106E0641C8442FCDBB0
:1018200019F804100029F8D1264404E019F8010B36
:1018300052460D999047641EF8D257E001CF4FF001
:101840000A0B002802DA40422D2102E0210504D5CE
:101850002B218DF82410012103E0E10705D0202180
:10186000F7E70DF1200908910CE00021F9E701CF1D
:101870004FF00A0BF9E75946FEF7CEFD01F13002B1
:1018800009F8012D0028F6D1ADEB090000F1200B7D
:10189000600701D44FF00108D84502DDA8EB0B002A
:1018A00000E000208046002406E009A85246005DC2
:1018B0000D999047641C761C08988442F5DB04E07F
:1018C000302052460D999047761CB8F10001A8F1DE
:1018D0000108F5DC05E019F8010B52460D99904717
:1018E000761CBBF10001ABF1010BF4DC6D1C34E79D
:1018F0000928010070B504460D46E1B20548FFF71E
:101900001AFE00BF80210348FFF748FD0028F9D0E8
:10191000204670BD00380140FFF7CEF9FFF712FEF8
:1019200005E0FFF705F84FF47A70FEF72FFFF8E7B0
:101930002DE9F04D16460F4694B01C4621F00041AB
:1019400023F00042002814BF4FF0010C4FF0000CB0
:101950000CEB470CFE4B0CEB03054FEA630C6545A3
:101960002BD3350018BF012505EB44051D44F94B69
:101970009D4222D3F84B52EA060C02D09F4205D179
:1019800048B914B000201946BDE8F08D002808BF02
:101990004FF0000C01D04FF0010C0CEB470313F596
:1019A000001F0AD8002E14BF4FF0010C4FF0000C9E
:1019B0000CEB440313F5001F07D914B0324623463D
:1019C0003946BDE8F04DFFF78BBEDFF890834FF04E
:1019D000000A002FB8BF424523DAE14B9A42A8BF64
:1019E0004FF0020A1DDADC4B93421ADCDD4B03EBAD
:1019F0002253142B08DDC3F1340C26FA0CF303FA3E
:101A00000CFCB4450DD108E05EB9C3F1140C22FA08
:101A10000CF303FA0CFC944503D103F00103C3F16A
:101A2000020A51EA00031BD1002C19DA002F18BF5B
:101A3000BAF1020F02D0BAF1010F07D00220FFF76E
:101A400077FE14B0BDE8F04DFFF742BE0220FFF76D
:101A50006FFEFFF73DFE14B081F00041BDE8F08D50
:101A6000330070D1424525D107F1804212F5801232
:101A700001BF00280020B84914B008BFBDE8F08DB0
:101A8000B548884207DC002CA1BF1846214614B097
:101A9000BDE8F08D07E0002CBFBF184684F0004180
:101AA00014B0BDE8F08DB0497944D1E9000114B01B
:101AB000BDE8F08DDFF8A0C262452AD1002C24DAFF
:101AC00039B1414517D1002804BF002002461CD17E
:101AD00006E040B10220FFF72BFEFFF709FE0A46A1
:101AE000394600F0D7BA9D4A394614B0002062F357
:101AF0001E01BDE8F08D08DA14B03B46BDE8F04D9C
:101B0000024600206146FEF72BBD14B03946BDE801
:101B1000F08D414517DAB4F1804F0CD0A4F1005399
:101B2000B3F1FF530FD13B1E0DDB14B01946BDE8D6
:101B3000F04D00F0D9BB3B4614B00246BDE8F04D75
:101B40001946FEF7D1BB050027F000433AD1E1B1B9
:101B5000414537D1002F06DD002CA1BF00204146B2
:101B600014B0BDE8F08D002F01DD002C1FDB002F2D
:101B700016DA002C14DBBAF1010F4FF0000014BF8D
:101B800076497A4914B0BDE8F08DBAF1020F18BF5A
:101B9000002F0CD0BAF1010F09D1002F07DA0BE0AA
:101BA000002FB8BF002C0DDABAF1010F04D00020CD
:101BB00014B00146BDE8F08D14B000204FF0004194
:101BC000BDE8F08D4FF0010808EBE77CCDF814C0BC
:101BD0005CEA0A0C0DD0DFF898C162457EDDDFF8C3
:101BE00094C1654B624512DD8B420ADB002C18DB89
:101BF00023E00120FFF79CFD14B0BDE8F04DFFF796
:101C000071BD554A8A4202DC002C0ADC15E099427B
:101C100002DA002C11DA04E04F4B994219DD002C56
:101C20000BDD0220FFF784FDFFF762FD4B4A14B085
:101C300061F31E021146BDE8F08D0220FFF778FD2A
:101C4000FFF75EFD444A14B061F31E021146BDE881
:101C5000F08D00223946FEF741FB07460D466FF036
:101C60000102FEF7ECFC4FF05532444BFEF739FB16
:101C70003A462B46FEF738FB0022414BFEF731FB7C
:101C800080468B463A462B4610461946FEF72CFBFB
:101C900042465B46FEF728FB88460E904FF0C04256
:101CA000384B38462946FEF71FFB83460091364ADB
:101CB000344B41460E98FEF717FB80460191334A9C
:101CC000334B38462946FEF70FFB4246019BFEF791
:101CD00005FB0D4602460B460C9000E011E058460D
:101CE0000099FEF75AFA002788465A463846009B64
:101CF000FEF7F4FA2B460C9AFEF7F3FA024600F0D0
:101D000079B90020B1F5801F07DA35222846194637
:101D1000FEF795FC05466FF0340000EB2150A0F271
:101D2000FF300190C1F3130040F07F6141F040515A
:101D3000029118498842D8BF4FF0000B35DD164993
:101D40008142C8BF4FF0010B2FDC4FF0000B25E0A4
:101D5000FFFF1F00FFFF0F000000F03F0000F07FBB
:101D60000000404301FCFFFF140900000000F0FFE9
:101D70000000E0410000F043FFFFEF3F5555D53F25
:101D80000000E03F4715F73FFE822B6544DF5DF81A
:101D90000BAE543E8E9803007AB60B000198401C9F
:101DA00001900298A0F580100290FF4802997844B3
:101DB00000EBCB000991D0E9002328460B93129247
:101DC000FEF78CFA00910A9028460B9B129A09990B
:101DD000FEF7E3F902460B460020F449FEF7C0FB8C
:101DE000CDE90C010B46024600990A98FEF77CFAF1
:101DF0000690EF48884600277844029900681090C2
:101E00004FF0005040EA610000EB8B4000F50021EC
:101E100002910B9B129A1098FEF760FA2A46099BD2
:101E2000FEF75FFA3A464346FEF75EFA08911290D3
:101E300038464146029B109AFEF756FA009B0A9AD2
:101E4000FEF74FFA089B129AFEF748FADDE90C23D9
:101E5000FEF74AFA0B91069A12904346104619462D
:101E6000FEF742FA05460246D2480B460A91062181
:101E70007844FFF7D7FB0A9B2A4608910290104648
:101E80001946FEF731FA089B029AFEF72DFA05462D
:101E90000991434638461946069AFEF77EF90B9B90
:101EA000129AFEF721FA2A46099BFEF776F9CDE948
:101EB00008013A46434610461946FEF715FA0A91BC
:101EC0000022BD4B0090FEF768F9DDE90823FEF71C
:101ED00064F90D463A46B84B3846FEF7FFF90A9BBF
:101EE000009AFEF7FBF9DDE90823FEF7FAF9CDE9E0
:101EF00008013A462B4610464146FEF7F5F9009197
:101F00000A90DDE908014346069AFEF7EDF90690CE
:101F100088462B463A460B991298FEF7E5F9434658
:101F2000069AFEF73AF980460B4602460D91009953
:101F30000A98FEF732F900200F460546009B0A9AE0
:101F4000FEF7CCF942460D9BFEF7CBF988460E9082
:101F50004FF06042994B28463946FEF7C5F9029189
:101F60000090974A954B41460E98FEF7BDF9804682
:101F70000391944A944B28463946FEF7B5F94246F8
:101F8000039BFEF70AF9914A7A4402EBCB03D3E9AB
:101F90000023FEF702F9054607910198FEF766FB5C
:101FA0000C9003912A46079B02990098FEF7F5F8DA
:101FB000874A7A4402EBCB03D3E90023934601938B
:101FC000FEF7EBF8039B0C9AFEF7E7F8002788462C
:101FD0003846039B0C9AFEF781F95A46019BFEF79F
:101FE0007DF9029B009AFEF779F92A46079BFEF7D6
:101FF00078F902460020069005986C4DAAF101037D
:10200000184301D1734D069000200B4604903046D2
:102010002146FEF769F982468B462346304619462B
:10202000049AFEF75BF93A464346FEF75DF95246DD
:102030005B46FEF7B2F806468A463A4643462146D4
:102040000498FEF751F904460F4632465346FEF710
:10205000A4F8614A8B46914221DBABEB020353EAC1
:10206000000210D122463B46FEF738F98046039124
:102070005A4A5B4B30465146FEF78FF84246039B67
:10208000FEF706FB27D20220FFF752FBFFF730FBDB
:102090000A46294614B062F31E01BDE8F08D514B8B
:1020A0002BF000429A4216D34F4A0BEB020353EA3D
:1020B000000208D122463B46FEF710F9324653464D
:1020C000FEF7E6FA07D80220FFF732FBFFF718FB0E
:1020D0000A462946DEE72BF000404449444A01EB1A
:1020E00020514FF00008824223DA481C4FF480113F
:1020F00021FA00F058443F4AC0F30A517A443E4B5B
:10210000A1F2FF31CB4020EA0303C0F3130040F4F7
:10211000801CC1F1140012682CFA00F8BBF1000F0A
:10212000B8BFC8F1000820463946FEF7D7F8044684
:102130000F4622463B4630465146FEF72EF84FF0FA
:10214000000B5A462D4B58460391FEF7CDF80091EF
:102150000A902B4A2B4B58460399FEF7C5F8049179
:10216000029022463B4658460399FEF7B7F832469E
:102170005346FEF7B6F8244A244BFEF7B5F8049B05
:10218000029AFEF70AF807468A46009B0A9AFEF76B
:1021900004F804460E46009B0A9AFEF79FF83A465A
:1021A0005346FEF79EF833E0860500000000F03F3E
:1021B000C4050000F40400000000084009C7EE3F19
:1021C000FD033ADCF5015B14E02F3EBECC030000BA
:1021D000920300000000F0BF00009040FE822B65DB
:1021E0004715973C00CC904000346F3F01FCFFFF47
:1021F0000000E03FC0020000FFFF0F00432EE63F5B
:10220000396CA80C615C20BEEF39FAFE422EE63F25
:102210000746224633460F9110461946FEF764F8EA
:10222000834602462E488A460B4605217844FFF72E
:10223000F9F95A465346FEF757F822463346FEF759
:1022400050F882468B463A46204631460F9BFEF7B1
:102250004BF83A460F9BFDF7A0FF0F460A9000226D
:102260004FF0804350465946FEF738F803910090EE
:1022700052465B4620463146FEF736F8039B009AED
:10228000FEF76EF93B460A9AFEF728F822463346D7
:10229000FEF724F80022134BFEF723F80E460446FF
:1022A00001EB08510815002810DC42462046314653
:1022B000FEF7C5F9FFF7A2F9042808BFFFF720FAD7
:1022C000424620463146FEF7BAF9044606980B46C8
:1022D00014B022462946BDE8F04DFEF705B80000CF
:1022E000680100000000F03F2DE9F04106460F466E
:1022F000FEF7F8F904000D4618BF0120284320F02E
:102300000040C0F17F6000F1E040C00F0ED0301CF3
:1023100018BF0120384320F00040C0F17F6000F179
:10232000E040C00F04BF0120FFF702FA2046294613
:10233000BDE8F08100000000000000000000F03F58
:10234000000000000000F83F000000000000000056
:102350000000004003B8E23F000000000000000061
:1023600006D0CF43EBFD4C3E033333333333E33FEF
:10237000FFAB6FDBB66DDB3F4D268F515555D53F1B
:1023800001411DA96074D13F65DBC9934A86CD3FE9
:10239000EF4E454A287ECA3F3E5555555555C53FD7
:1023A00093BDBE166CC166BF2CDE25AF6A56113FC9
:1023B000F16BD2C541BDBBBED0A4BE726937663ECB
:1023C0000000000000000000E823000800000020DA
:1023D00024000000101700080C240008240000202E
:1023E000141200002017000800000000010203047E
:1023F00001020304060708090204060800000000A1
:0C240000000000000000000000000000D0
:0400000508000131BD
:00000001FF
