:020000040800F2
:10000000E011002045010008870400087F04000873
:1000100083040008E30100084D0D00080000000003
:10002000000000000000000000000000B30900080C
:10003000E70100080000000045070008C90A0008A1
:100040005F0100085F0100085F0100085F01000810
:100050005F0100085F0100085F0100085F01000800
:100060005F0100085F0100085F0100085F010008F0
:100070005F0100085F0100085F0100085F010008E0
:100080005F0100085F0100085F0100085F010008D0
:100090005F0100085F0100085F0100085F010008C0
:1000A0005F0100085F0100085F0100085F010008B0
:1000B0005F0100085F0100085F0100085F010008A0
:1000C0005F0100085F0100085F0100085F01000890
:1000D0005F0100085F0100085F0100085F01000880
:1000E0005F0100085F0100085F0100085F01000870
:1000F0005F0100085F0100085F0100085F01000860
:100100005F0100085F0100085F0100085F0100084F
:100110005F0100085F0100085F0100085F0100083F
:100120005F0100085F0100085F0100085F0100082F
:10013000DFF80CD000F018F800480047C90E00089E
:10014000E01100200648804706480047FEE7FEE72A
:10015000FEE7FEE7FEE7FEE7FEE7FEE7FEE7FEE777
:10016000CD0A000831010008064C074D06E0E068A2
:1001700040F0010394E8070098471034AC42F6D3EE
:10018000FFF7DAFF240F0008440F000870B58C1841
:1001900010F8015B15F0070301D110F8013B2A119B
:1001A00006D110F8012B03E010F8016B01F8016B88
:1001B0005B1EF9D12B0705D40023521E0DD401F884
:1001C000013BFAE710F8013BCB1A921C03E013F84D
:1001D000015B01F8015B521EF9D5A142D8D3002082
:1001E00070BD00BFFEE77047F0B504461C4AB2F18F
:1001F000807F00D31DE022F07F40401E4FF0E023BF
:10020000586158170F23002807DA1D072F0E154DC8
:1002100000F00F06361FAF5503E01D072E0E124DDE
:100220002E5400BF00204FF0E02398610720186192
:1002300000BF002108E000BF4FF0E020006900F49B
:1002400080300028F8D0491CA142F4D34FF0E020C0
:10025000006920F001004FF0E0221061F0BD0000C5
:100260004019010018ED00E000E400E000B585B0A1
:100270000121880400F068FA01214FF4847000F035
:1002800083FA2A4800F072FC10208DF803004FF426
:10029000C040ADF8000003208DF8020069462448F4
:1002A00000F05EF818208DF803004FF48060ADF880
:1002B000000003208DF8020069461E4800F050F847
:1002C00004208DF803004002ADF8000003208DF8F3
:1002D00002006946174800F043F84FF4E1300190FE
:1002E0000020ADF810000420ADF80E000020ADF89D
:1002F0000C00ADF80A00ADF8080001A90B4800F0A9
:10030000B5FC00F019F8012240F22551074800F031
:1003100088FC012240F22441044800F082FC0121C3
:10032000024800F016FC05B000BD00000048004087
:1003300000200140000C014008B54FF4A06000F01F
:10034000DBF827208DF8000001208DF80300002045
:100350008DF801008DF80200684600F095F808BDA0
:100360002DE9F0410246002500260020002300244C
:10037000002791F803C00CF00F0591F803C00CF0B2
:10038000100CBCF1000F03D091F802C04CEA050537
:1003900091F800C0BCF1000F31D0146800202BE0B0
:1003A0004FF0010C0CFA00F3B1F800C00CEA0306A0
:1003B0009E4220D183004FF00F0C0CFA03F7BC4390
:1003C00005FA03FC4CEA040491F803C0BCF1280FC1
:1003D00006D14FF0010C0CFA00FCC2F814C00AE080
:1003E00091F803C0BCF1480F05D14FF0010C0CFA95
:1003F00000FCC2F810C0401C0828D1D31460B1F82A
:1004000000C0BCF1FF0F34DD546800202EE000F185
:10041000080C4FF0010808FA0CF3B1F800C00CEA20
:1004200003069E4221D183004FF00F0C0CFA03F714
:10043000BC4305FA03FC4CEA040491F803C0BCF188
:10044000280F05D100F1080C08FA0CF8C2F8148046
:1004500091F803C0BCF1480F07D100F1080C4FF030
:10046000010808FA0CF8C2F81080401C0828CED306
:100470005460BDE8F081416170470161704700BF81
:10048000FEE700BFFEE7704770B5002100230F2292
:10049000C47804B3154C246804F4E064C4F5E06443
:1004A000210AC1F10403CA40447804FA03F18478B4
:1004B0001440214309010E4C0678A155047804F03C
:1004C0001F050124AC4005786D11AD0005F1E02554
:1004D000C5F8004109E0047804F01F050124AC4090
:1004E000044D0678761145F8264070BD0CED00E00D
:1004F00000E400E080E100E002490143024A1160AB
:10050000704700000000FA050CED00E070B50646EB
:100510000024002500BF16E004F1B000002100F027
:10052000EFF80021084600F0EBF80021102000F061
:10053000E7F8002504E00121304600F0E1F86D1CE9
:10054000802DF8DB641C082CE6DB70BD08B50121AA
:10055000082000F019F910208DF803004FF4E05046
:10056000ADF8000003208DF8020069460448FFF74B
:10057000F7FE4FF4E0510248FFF77FFF08BD00008F
:10058000000C014010B500F095F9FFF7DFFFC8201F
:10059000FFF72AFE00F068F80021AE2000F0B0F866
:1005A0000021084600F0ACF80021102000F0A8F867
:1005B0000021402000F0A4F80021B02000F0A0F8B5
:1005C0000021812000F09CF80021FF2000F098F825
:1005D0000021A12000F094F80021A62000F090F85E
:1005E0000021A82000F08CF800213F2000F088F8BE
:1005F0000021C82000F084F80021D32000F080F80A
:100600000021084600F07CF80021D52000F078F8A1
:100610000021802000F074F80021D92000F070F84B
:100620000021F12000F06CF80021DA2000F068F8D9
:100630000021122000F064F80021DB2000F060F8B7
:100640000021302000F05CF800218D2000F058F8E7
:100650000021142000F054F80021AF2000F050F8E1
:100660000020FFF753FF10BD10B54FF480510A482A
:10067000FFF703FF6420FFF7B7FD4FF480510648F2
:10068000FFF7F9FE6420FFF7AFFD4FF480510248F9
:10069000FFF7F3FE10BD0000000C01402DE9F84FFC
:1006A00004460D4617464FF0000B40200090281DD1
:1006B00000F0FF0A009807FB00FB2E4619E004F14A
:1006C000100000F0FF093146204600F073F9A04603
:1006D0000BE059460BF1010B084A505C012100F078
:1006E0000FF808F1010000F0FF08C845F1DB701CAD
:1006F000C6B25645E3DBBDE8F88F00005A0B002078
:1007000070B504460D462DB14FF480610B48FFF7DC
:10071000B4FE04E04FF480610848FFF7ACFE4FF4EC
:1007200000610648FFF7A7FEE1B2054800F030F986
:100730004FF400610148FFF7A0FE70BD000C0140BE
:10074000003800407047000029B1064AD2690243D0
:10075000044BDA6104E0034AD2698243014BDA6157
:10076000704700000010024029B1064A1269024396
:10077000044B1A6104E0034A12698243014B1A6177
:10078000704700000010024029B1064A92690243F6
:10079000044B9A6104E0034A92698243014B9A61D7
:1007A000704700000010024029B1064AD268024397
:1007B000044BDA6004E0034AD2688243014BDA60FA
:1007C000704700000010024030B5002100220024D4
:1007D00000232D4D6D6805F00C0121B1042905D0D1
:1007E000082923D105E0294D056022E0274D056049
:1007F0001FE0254D6D6805F47012234D6D6805F4FA
:100800008034022505EB92421CB9214D5543056009
:100810000BE01D4D6D6805F400351DB11C4D5543B1
:10082000056002E0194D5543056002E0174D056073
:1008300000BF00BF144D6D6805F0F0010909154DAA
:100840006B5C0568DD4045600F4D6D6805F4E06147
:10085000090A104D6B5C4568DD4085600A4D6D6886
:1008600005F46051C90A0B4D6B5C4568DD40C560FD
:10087000054D6D6805F44041890B074D6B5CC568FB
:10088000B5FBF3F5056130BD0010024000127A009F
:1008900000093D00000000201000002021B1028866
:1008A00042F04002028004E002884FF6BF731A4013
:1008B0000280704700B587B001210920FFF764FF6F
:1008C00018208DF807004FF42040ADF804000320F5
:1008D0008DF8060001A91D48FFF742FD48208DF85C
:1008E00007004FF48040ADF8040003208DF80600A7
:1008F00001A91648FFF734FD01218803FFF724FF03
:100900000020ADF814000120ADF810000220ADF871
:100910000E000720ADF818000020ADF80C00ADF86F
:100920000800ADF816004FF48270ADF80A004FF4DD
:100930000070ADF8120002A9054800F00BF8012183
:100940000348FFF7ABFF07B000BD0000000C0140FB
:100950000038004010B50022028802F441520B8892
:100960004C8823438C882343CC8823430C8923431E
:100970004C8923438C892343CC8923431A43028027
:10098000838B4FF2FF74234083830B8A038210BD55
:10099000024600BF108900F002000028FAD09181C1
:1009A00000BF108900F001000028FAD09089C0B281
:1009B0007047704770B504460D4605F1B000002140
:1009C000FFF79EFE102141EA14100021FFF798FE68
:1009D00004F00F0141F001000021FFF791FE70BD0E
:1009E00010B500F001F810BD0CB50020019000908A
:1009F0003348006840F480303149086000BF304817
:100A0000006800F4003000900198401C01900098AC
:100A100018B90198B0F5A06FF1D12948006800F429
:100A2000003010B10120009001E0002000900098FB
:100A3000012843D12348006840F010002149086094
:100A40000846006820F0030008600846006840F08F
:100A5000020008601A484068194948600846406822
:100A600048600846406840F4806048600846406836
:100A700020F47C1048600846406840F4E810486064
:100A80000846006840F08070086000BF0C480068AD
:100A900000F000700028F9D00948406820F00300F9
:100AA000074948600846406840F00200486000BFBF
:100AB0000348406800F00C000828F9D10CBD000084
:100AC00000100240002002407047000010B513489B
:100AD000006840F00100114908600846406810496C
:100AE00008400E494860084600680E4908400B4916
:100AF00008600846006820F48020086008464068C6
:100B000020F4FE0048604FF41F008860FFF768FF84
:100B10004FF000600449086010BD00000010024062
:100B20000000FFF8FFFFF6FE08ED00E008B54FF407
:100B3000A060FFF7E1FC25208DF8000001208DF872
:100B400003008DF801008DF802006846FFF79CFC59
:100B500008BD21B1828942F40052828104E0828979
:100B60004DF6FF731A4082817047000010B50446AD
:100B70002048844209D101218803FFF715FE002196
:100B80004FF48040FFF710FE32E01B48844209D149
:100B900001214804FFF7E8FD00214FF40030FFF782
:100BA000E3FD25E01548844209D101218804FFF7BF
:100BB000DBFD00214FF48020FFF7D6FD18E0104840
:100BC000844209D10121C804FFF7CEFD00214FF472
:100BD0000020FFF7C9FD0BE00A48844208D101213B
:100BE0000805FFF7C1FD00214FF48010FFF7BCFDA1
:100BF00010BD0000003801400044004000480040A3
:100C0000004C00400050004002460020B1F5007F3B
:100C100000D100BF13880B400BB1012000E0002081
:100C20007047F0B50346002400260025002040F65A
:100C30006A17B94200D100BF1846C1F3421401F04F
:100C40001F06012707FA06F5012C01D10C3004E03C
:100C5000022C01D1103000E014301AB107682F4384
:100C6000076002E00768AF430760F0BD2DE9F04779
:100C700086B005460E460024A24600BFA1460027C6
:100C8000B08900B100BF2F462C8A4CF6FF7004409B
:100C9000F08804432C82AC894EF6F3100440B088EF
:100CA00031890843718908430443AC81AC8A4FF60B
:100CB000FF400440B0890443AC8201A8FFF784FDE3
:100CC0001F48874202D1DDF810A001E0DDF80CA03A
:100CD000A88900F4004040B10AEBCA0000EB0A10FA
:100CE00031684900B0FBF1F807E00AEBCA0000EBFD
:100CF0000A1031688900B0FBF1F86420B8FBF0F00D
:100D000004012009642101FB1089A88900F4004036
:100D100040B1322000EBC900B0FBF1F000F0070059
:100D2000044308E0322000EB09106421B0FBF1F02D
:100D300000F00F0004432C8106B0BDE8F0870000EE
:100D400000380140C1F308028280704700BFFEE70F
:100D500000B585B001210420FFF716FD01218803AD
:100D6000FFF712FD2148FFF701FF18208DF803005F
:100D70004FF40070ADF8000003208DF802006946C2
:100D80001B48FFF7EDFA04208DF803000002ADF8D0
:100D9000000069461648FFF7E3FA4FF4E13001908E
:100DA0000020ADF810000C20ADF80E000020ADF8CA
:100DB0000C00ADF80A00ADF8080001A90B48FFF7D8
:100DC00055FFFFF7B3FE012240F225510748FFF718
:100DD00028FF012240F224410448FFF722FF0121AD
:100DE0000248FFF7B6FE05B000BD00000038014024
:100DF00000080140014A024900F013B8450E0008FE
:100E0000DC0D002002E008C8121F08C1002AFAD138
:100E100070477047002001E001C1121F002AFBD17A
:100E200070472DE9F04116460F460446002503E0C1
:100E30003946B047641C6D1C20780028F8D128463C
:100E4000BDE8F08170B504460D46E1B20548FFF7F4
:100E500079FF00BF80210348FFF7D6FE0028F9D0B4
:100E6000204670BD0038014010B504462CB1042264
:100E700000210846FFF712FC00E010BD00BFFCE7B0
:100E800008B501211420FFF77FFC04208DF8030032
:100E90000120ADF8000003208DF8020069460848E3
:100EA000FFF75EFA04208DF80300C002ADF80000E1
:100EB00003208DF8020069460248FFF751FA08BD89
:100EC0000008014000100140FFF75CFBFFF7D8FF6E
:100ED000FFF7CCF9FFF73CFF0020FFF7C5FF09A0A3
:100EE000FFF788FF0DE00BA0FFF784FF4FF47A7047
:100EF000FFF77AF909A0FFF77DFF4FF47A70FFF74B
:100F000073F9F0E768656C6C6F7720776F726C64CB
:100F1000210A00007465737431210A0074657374CA
:100F200032210A00440F000800000020E00D0000FC
:100F30008C010008BC130008E00D00200004000034
:100F4000140E0008412D01020304042009060708BD
:100F50000902040608238038033A10402008C030F4
:100F600018840802421409C880074B92E0440830F4
:100F7000C0901878FFE4F8FA7CF9FE3EF87E60FC39
:100F8000F9F8FEF9FCF3BFFFFECC181BDEDEDE5ED7
:100F900060042E36F6F6F2F2FAFEFAD4F2FCFCFE0B
:100FA0007EFEFEBEFCF60A7EF4F0F0F6FE018AFC40
:100FB0000B19232822BE3EBE5E2E9AC5F7F0E03FF5
:100FC0002D2C22EEC0C090C0C0E1E7895E4F7FFFAC
:100FD000C8CCFFFDF6F647181AFEFEDFBFFE7FFE07
:100FE000FEC0C0C1E1CBDF83FF839FC7C7C3C9E792
:100FF000F7FF011815F3F7F3FFE7FFF7F7E3E3E770
:10100000E7E7FF77BFD7F7FFE71A20157FBF7F3DE0
:101010009A9BC7D7E971F0FAFE3F9F93C161A0B0D8
:101020001811FFA5A7278F8FA7A37F0101BEB31FAC
:10103000D36F402EEF3DFEFBC749091001280ECFAC
:10104000DFDFDF7F1F9F8F8F879FAFDF11101DFBBB
:10105000FEFFFFBFFFFF3FC7F1BC9C6E3B9F733994
:101060009E4F8BCB35A3C243C098811BC131600812
:101070001A26F070B030D0F87CB8FFC0031C7CF9A1
:10108000C0C5FBFFFF3E1F9FFFFF7F01181370FFCE
:101090009FFBE4F59C727E7EC7C1F8FE7E06DBFCFA
:1010A000713A068F180CE0F07E3F80E0789F87F35E
:1010B000070E1EFCF870FFF79357ED7B80F17F7BE6
:1010C0005A400519031220234020251870441E3A67
:1010D00060161228137020100A20C06698FFE70FD0
:1010E000FFFF1008C0EEE7FEFF3C9810163F11F31B
:1010F0000F07301F0F01030305070905B20A048318
:101100003F03401203FF0107176F377BFF9F37FF35
:10111000FFC1FF1FF41A02012A06054B0212044DFB
:1011200006120213151B160601200CC6665E4FD769
:10113000CB77E6991F1F167F07070183101E022336
:101140002032333180C0F04012C06010200806C148
:10115000B04CA1C0E080808F9FE063600CA080C392
:101160009FFE60830F3F5C7F1D080808F80420087D
:101170001010FF101010F0180F1030101F088848C2
:10118000300E014080403F201008CC4A49484ACCEC
:1011900018277F88888482E01EFF121252923D5ADF
:1011A0007E100134AD808080C00119100163080AEF
:1011B00014C0E0F0F8F8FCFEFEFF01000955FEFE49
:1011C000FCF8F8F0E0C00B16E0F87709118903503D
:1011D000F8E009277C6901014F0A2D3F7F02513F4A
:1011E0000D23030F3F7F7B05587F3F0F03C80C0182
:1011F0000307070F0F1F1F3F3F7F01000BE53F3F16
:101200001F1F0F0F07070301180B808080C0C0C08D
:10121000C2C2C2FE04190A19100163080A14C0E010
:10122000F078783C3E1E1F010009551E1E1C18F860
:10123000F0E0C00622E0F8FE07072AFF010446FEA0
:10124000F8E06BF840012957012439802901593809
:10125000023DF892030A2D3F80FA3F4201400E1FE3
:10126000030F3C7CFC01197B0C487F3F0F76F13863
:101270000C010307070F0F1F1F3F3F7F014AFF07A6
:10128000000D6A7F7F3F3F1F1F0F0F070703011DE0
:101290002020203F040144600880C0404040C080BE
:1012A0004CF0FE0FC6350107FEF0741FFFE04CC086
:1012B000FF1F19AF030604040406EDA380C01A0142
:1012C00001E3FFFFA910293C2B070743693D197E65
:1012D00029804981731E195CC17F3E1F1E201008A2
:1012E00004026E39896B0706014A07813A8040691A
:1012F0003F112B0F0F135680C0613F1E4AE0BF4EB7
:10130000010103FE78BE1A027BAC040402C029C2AC
:1013100079C35F8060300C02FFB31E101C121110E5
:101320000119101906711F0808080F0F0F06517ACE
:10133000C001511DF8874020014B60C0916BE061F6
:10134000573BFF7E80497FB9802B80C0C359304C0A
:10135000FC0E81D24383035C3FFFC3294A0141193C
:10136000C2AA0641897F39803A0F178D806018061E
:10137000603BE0FC4B91CB0707FB396F497F111FA6
:101380001E3F71E0C080012C613F1ECE1BFC065148
:101390004808010103070EFCF87E49C179C03A8074
:1013A000AE59BE116BFCFF6B3B83FE304B8183AEAD
:0C13B0004583F17F0F2B03030F2955A18B
:0400000508000131BD
:00000001FF
