:020000040800F2
:1000000010120020450100080D0400080504000836
:1000100009040008DD0100087B0D00080000000055
:10002000000000000000000000000000D7080008E9
:10003000E10100080000000069060008C10900088D
:100040005F0100085F0100085F0100085F01000810
:100050005F0100085F0100085F0100085F01000800
:100060005F0100085F0100085F0100085F010008F0
:100070005F0100085F0100085F0100085F010008E0
:100080005F0100085F0100085F0100085F010008D0
:100090005F0100085F0100085F0100085F010008C0
:1000A0005F0100085F0100085F0100085F010008B0
:1000B0005F0100085F0100085F0100085F010008A0
:1000C0005F0100085F0100085F0100085F01000890
:1000D0005F010008250A00085F010008710A000896
:1000E0005F0100085F0100085F0100085F01000870
:1000F0005F0100085F0100085F0100085F01000860
:100100005F0100085F0100085F0100085F0100084F
:100110005F0100085F0100085F0100085F0100083F
:100120005F0100085F0100085F0100085F0100082F
:10013000DFF80CD000F040F8004800473510000808
:10014000101200200648804706480047FEE7FEE7F9
:10015000FEE7FEE7FEE7FEE7FEE7FEE7FEE7FEE777
:10016000C50900083101000830B505462A460B468E
:1001700012F8010B13F8014B08B1A042F8D01CB1E2
:10018000002802D06D1CF1E7284630BD30B50B4683
:10019000014600202022012409E021FA02F59D42B7
:1001A00005D303FA02F5491B04FA02F52844151E8B
:1001B000A2F10102F1DC30BD064C074D06E0E0681B
:1001C00040F0010394E8070098471034AC42F6D39E
:1001D000FFF7B2FF541000087410000800BFFEE7DC
:1001E00070470000F0B504461C4AB2F1807F00D38E
:1001F0001DE022F07F40401E4FF0E0235861581769
:100200000F23002807DA1D072F0E154D00F00F06EB
:10021000361FAF5503E01D072E0E124D2E5400BFA2
:1002200000204FF0E02398610720186100BF0021F3
:1002300008E000BF4FF0E020006900F480300028A3
:10024000F8D0491CA142F4D34FF0E020006920F01F
:1002500001004FF0E0221061F0BD000040190100E4
:1002600018ED00E000E400E02DE9F0410246002531
:100270000026002000230024002791F803C00CF082
:100280000F0591F803C00CF0100CBCF1000F03D067
:1002900091F802C04CEA050591F800C0BCF1000FCE
:1002A00031D0146800202BE04FF0010C0CFA00F361
:1002B000B1F800C00CEA03069E4220D183004FF043
:1002C0000F0C0CFA03F7BC4305FA03FC4CEA0404D8
:1002D00091F803C0BCF1280F06D14FF0010C0CFAC5
:1002E00000FCC2F814C00AE091F803C0BCF1480F4A
:1002F00005D14FF0010C0CFA00FCC2F810C0401CF4
:100300000828D1D31460B1F800C0BCF1FF0F34DD70
:10031000546800202EE000F1080C4FF0010808FAA4
:100320000CF3B1F800C00CEA03069E4221D1830011
:100330004FF00F0C0CFA03F7BC4305FA03FC4CEA30
:10034000040491F803C0BCF1280F05D100F1080C9A
:1003500008FA0CF8C2F8148091F803C0BCF1480FF9
:1003600007D100F1080C4FF0010808FA0CF8C2F8A8
:100370001080401C0828CED35460BDE8F081416154
:10038000704701617047000010B500241FE0164857
:1003900050F8240015A1884211D0134850F82400C9
:1003A00013A188420BD0104850F8240011A18842B4
:1003B00005D00D4850F824000FA1884200D10BE071
:1003C0000E4800F0D1FC084951F8241008702000B4
:1003D00004F10101CCB2DAD100BF034908A000F05A
:1003E0001BFD0148006810BD180000202B00000014
:1003F0002D0000002A0000002F00000000380140FE
:100400002564000000BFFEE700BFFEE77047000064
:1004100070B5002100230F22C47804B3154C246862
:1004200004F4E064C4F5E064210AC1F10403CA40A5
:10043000447804FA03F184781440214309010E4CF6
:100440000678A155047804F01F050124AC40057816
:100450006D11AD0005F1E025C5F8004109E0047813
:1004600004F01F050124AC40044D0678761145F8D0
:10047000264070BD0CED00E000E400E080E100E00B
:1004800002490143024A1160704700000000FA056A
:100490000CED00E070B506460024002500BF16E014
:1004A00004F1B000002100F0BDF80021084600F082
:1004B000B9F80021102000F0B5F8002504E0012172
:1004C000304600F0AFF86D1C802DF8DB641C082C62
:1004D000E6DB70BD08B50121082000F0E7F8102028
:1004E0008DF803004FF4E050ADF8000003208DF8C4
:1004F000020069460448FFF7B7FE4FF4E051024896
:10050000FFF73FFF08BD0000000C014010B500F0F0
:1005100063F9FFF7DFFFC820FFF764FE00F068F81B
:100520000021AE2000F07EF80021084600F07AF8A5
:100530000021102000F076F80021402000F072F831
:100540000021B02000F06EF80021812000F06AF850
:100550000021FF2000F066F80021A12000F062F8E1
:100560000021A62000F05EF80021A82000F05AF833
:1005700000213F2000F056F80021C82000F052F87A
:100580000021D32000F04EF80021084600F04AF880
:100590000021D52000F046F80021802000F042F82C
:1005A0000021D92000F03EF80021F12000F03AF8B7
:1005B0000021DA2000F036F80021122000F032F895
:1005C0000021DB2000F02EF80021302000F02AF876
:1005D00000218D2000F026F80021142000F022F8E0
:1005E0000021AF2000F01EF80020FFF753FF10BDE0
:1005F00010B54FF480510A48FFF7C3FE6420FFF79F
:10060000F1FD4FF480510648FFF7B9FE6420FFF773
:10061000E9FD4FF480510248FFF7B3FE10BD000022
:10062000000C014070B504460D462DB14FF48061B9
:100630000B48FFF7A6FE04E04FF480610848FFF77F
:100640009EFE4FF400610648FFF799FEE1B20548AF
:1006500000F030F94FF400610148FFF792FE70BDE1
:10066000000C0140003800407047000029B1064AE4
:10067000D2690243044BDA6104E0034AD26982433F
:10068000014BDA61704700000010024029B1064AB0
:1006900012690243044B1A6104E0034A126982435F
:1006A000014B1A61704700000010024029B1064A50
:1006B00092690243044B9A6104E0034A92698243BF
:1006C000014B9A61704700000010024029B1064AB0
:1006D000D2680243044BDA6004E0034AD2688243E2
:1006E000014BDA60704700000010024030B5002175
:1006F0000022002400232D4D6D6805F00C0121B16E
:10070000042905D0082923D105E0294D056022E000
:10071000274D05601FE0254D6D6805F47012234DCF
:100720006D6805F48034022505EB92421CB9214D19
:10073000554305600BE01D4D6D6805F400351DB196
:100740001C4D5543056002E0194D5543056002E01C
:10075000174D056000BF00BF144D6D6805F0F00136
:100760000909154D6B5C0568DD4045600F4D6D68EE
:1007700005F4E061090A104D6B5C4568DD40856059
:100780000A4D6D6805F46051C90A0B4D6B5C4568F4
:10079000DD40C560054D6D6805F44041890B074D8E
:1007A0006B5CC568B5FBF3F5056130BD0010024018
:1007B00000127A0000093D00000000201000002017
:1007C00021B1028842F04002028004E002884FF624
:1007D000BF731A400280704700B587B0012109201D
:1007E000FFF764FF18208DF807004FF42040ADF8A4
:1007F000040003208DF8060001A91D48FFF734FD11
:1008000048208DF807004FF48040ADF80400032025
:100810008DF8060001A91648FFF726FD012188037F
:10082000FFF724FF0020ADF814000120ADF8100000
:100830000220ADF80E000720ADF818000020ADF83A
:100840000C00ADF80800ADF816004FF48270ADF85A
:100850000A004FF40070ADF8120002A9054800F03C
:100860000BF801210348FFF7ABFF07B000BD000004
:10087000000C01400038004010B50022028802F44C
:1008800041520B884C8823438C882343CC882343D4
:100890000C8923434C8923438C892343CC892343EC
:1008A0001A430280838B4FF2FF74234083830B8AA9
:1008B000038210BD024600BF108900F0020000282C
:1008C000FAD0918100BF108900F001000028FAD011
:1008D0009089C0B27047704710B500F001F810BDA4
:1008E0000CB50020019000903348006840F480303F
:1008F0003149086000BF3048006800F400300090C3
:100900000198401C0190009818B90198B0F5A06FAB
:10091000F1D12948006800F4003010B101200090A6
:1009200001E0002000900098012843D1234800688E
:1009300040F01000214908600846006820F00300DC
:1009400008600846006840F0020008601A484068E5
:10095000194948600846406848600846406840F4C5
:10096000806048600846406820F47C104860084673
:10097000406840F4E81048600846006840F0807025
:10098000086000BF0C48006800F000700028F9D033
:100990000948406820F0030007494860084640685D
:1009A00040F00200486000BF0348406800F00C00BF
:1009B0000828F9D10CBD00000010024000200240C0
:1009C0007047000010B51348006840F0010011495D
:1009D000086008464068104908400E4948600846CB
:1009E00000680E4908400B4908600846006820F47A
:1009F000802008600846406820F4FE0048604FF4FC
:100A00001F008860FFF768FF4FF00060044908602E
:100A100010BD0000001002400000FFF8FFFFF6FECE
:100A200008ED00E010B540F22551064800F0E1F86D
:100A300038B1044800F098F9C4B22146014800F0EA
:100A400098F910BD0038014008B54FF4A060FFF7D9
:100A500017FD25208DF8000001208DF803008DF88A
:100A600001008DF802006846FFF7D2FC08BD0000C7
:100A700010B540F22551234800F0BBF8D8B1214809
:100A800000F072F9C4B22048B0F80004C0F30E00C0
:100A900040F2FF3188420EDA1B49B1F80014C1F36D
:100AA0000E00411C184AB2F8002461F30E021649E8
:100AB000A1F800240C5440F22441124800F099F8A7
:100AC000012817D11048B0F8000420F4004000F5C8
:100AD00000400D49A1F800040A4800F045F9C4B2ED
:100AE0000AA10948FFF740FB08B1012000E00020FF
:100AF00009490870094804700178094800F039F97B
:100B000010BD0000004800402C000020434C4F5313
:100B100045440D0A000000001500002014000020CC
:100B20000038014021B1828942F40052828104E000
:100B300082894DF6FF731A408281704710B50446D2
:100B40002048844209D101218803FFF7BFFD00211D
:100B50004FF48040FFF7BAFD32E01B48844209D1D0
:100B600001214804FFF792FD00214FF40030FFF708
:100B70008DFD25E01548844209D101218804FFF745
:100B800085FD00214FF48020FFF780FD18E010481C
:100B9000844209D10121C804FFF778FD00214FF4F8
:100BA0000020FFF773FD0BE00A48844208D10121C1
:100BB0000805FFF76BFD00214FF48010FFF766FD7D
:100BC00010BD0000003801400044004000480040D3
:100BD000004C00400050004002460020B1F5007F6C
:100BE00000D100BF13880B400BB1012000E00020B2
:100BF000704770B50246002400230025002040F60F
:100C00006A16B14200D100BFC1F3421501F01F03C3
:100C1000012606FA03F3012D02D19689334006E03E
:100C2000022D02D1168A334001E0968A33400C121D
:100C3000012606FA04F41688344013B10CB10120E1
:100C400000E0002070BDF0B503460024002600251A
:100C5000002040F66A17B94200D100BF1846C1F320
:100C6000421401F01F06012707FA06F5012C01D1F5
:100C70000C3004E0022C01D1103000E014301AB125
:100C800007682F43076002E00768AF430760F0BDC5
:100C90002DE9F04786B005460E460024A24600BF67
:100CA000A1460027B08900B100BF2F462C8A4CF620
:100CB000FF700440F08804432C82AC894EF6F31098
:100CC0000440B08831890843718908430443AC81EA
:100CD000AC8A4FF6FF400440B0890443AC8201A8BF
:100CE000FFF704FD1F48874202D1DDF810A001E0A4
:100CF000DDF80CA0A88900F4004040B10AEBCA005E
:100D000000EB0A1031684900B0FBF1F807E00AEB8C
:100D1000CA0000EB0A1031688900B0FBF1F86420CA
:100D2000B8FBF0F004012009642101FB1089A889B7
:100D300000F4004040B1322000EBC900B0FBF1F0FC
:100D400000F00700044308E0322000EB09106421A2
:100D5000B0FBF1F000F00F0004432C8106B0BDE8B9
:100D6000F08700000038014001468888C0F3080081
:100D70007047C1F308028280704700BFFEE70000A1
:100D800000B585B001210420FFF790FC0121880304
:100D9000FFF78CFC1E48FFF7D1FE18208DF80300EA
:100DA0004FF40070ADF8000003208DF80200694692
:100DB0001848FFF759FA04208DF803000002ADF837
:100DC000000069461348FFF74FFA4FF4E1300190F5
:100DD0000020ADF810000C20ADF80E000020ADF89A
:100DE0000C00ADF80A00ADF8080001A90848FFF7AB
:100DF0004FFFFFF729FE012240F225510448FFF77B
:100E000022FF01210248FFF78DFE05B000BD000062
:100E100000380140000801400FB4054B10B503A98C
:100E2000044A029800F018F810BC5DF814FB0000AA
:100E3000111000082800002002E008C8121F08C195
:100E4000002AFAD170477047002001E001C1121F4B
:100E5000002AFBD1704700002DE9FF4F8BB09A4666
:100E60000F460546002606E025280BD052460D9970
:100E700090476D1C761C28780028F5D10FB03046BD
:100E8000BDE8F08F0024A0460122604900E0044341
:100E900015F8013F203B02FA03F00842F7D1287809
:100EA0002E2817D115F8010F44F004042A280ED07B
:100EB0006FF02F022878A0F1300109290AD808EB39
:100EC000880102EB410100EB01086D1CF2E757F8C5
:100ED000048B6D1C287869283ED006DC0028CDD014
:100EE00063280BD0642804D136E0732810D075280D
:100EF0004BD052460D999047761C85E017F8040BAD
:100F00008DF8000000208DF80100E946012003E083
:100F100057F8049B4FF0FF3061074FF0000401D4F5
:100F20000AE0641C44450DDA8442FADB19F8041027
:100F30000029F6D106E0641C8442FCDB19F8041099
:100F40000029F8D1264404E019F8010B52460D9906
:100F50009047641EF8D257E001CF4FF00A0B0028EB
:100F600002DA40422D2102E0210504D52B218DF823
:100F70002410012103E0E10705D02021F7E70DF15E
:100F8000200908910CE00021F9E701CF4FF00A0B8E
:100F9000F9E75946FFF7FAF801F1300209F8012D97
:100FA0000028F6D1ADEB090000F1200B600701D459
:100FB0004FF00108D84502DDA8EB0B0000E000204F
:100FC0008046002406E009A85246005D0D9990472E
:100FD000641C761C08988442F5DB04E030205246FD
:100FE0000D999047761CB8F10001A8F10108F5DCD5
:100FF00005E019F8010B52460D999047761CBBF19C
:101000000001ABF1010BF4DC6D1C34E70928010091
:1010100070B504460D46E1B20548FFF7AAFE00BFD1
:1010200080210348FFF7D8FD0028F9D0204670BD85
:1010300000380140FFF76AFAFFF7A2FEFFF7A4F9B4
:1010400000BFFEE72B00000031000000320000006E
:101050003300000074100008000000202C00000085
:10106000380E0008A01000082C000020E411000039
:10107000480E0008000000000102030401020304FE
:1010800006070809020406080000000048100008CE
:101090004C10000850100008441000080000000028
:0400000508000131BD
:00000001FF
